{
  "contractName": "CustomerRegistry",
  "abi": [
    {
      "anonymous": false,
      "inputs": [
        {
          "indexed": false,
          "internalType": "uint256",
          "name": "customerId",
          "type": "uint256"
        }
      ],
      "name": "CustomerAdded",
      "type": "event"
    },
    {
      "anonymous": false,
      "inputs": [
        {
          "indexed": false,
          "internalType": "uint256",
          "name": "customerId",
          "type": "uint256"
        }
      ],
      "name": "CustomerDeleted",
      "type": "event"
    },
    {
      "anonymous": false,
      "inputs": [
        {
          "indexed": false,
          "internalType": "uint256",
          "name": "customerId",
          "type": "uint256"
        }
      ],
      "name": "CustomerUpdated",
      "type": "event"
    },
    {
      "inputs": [
        {
          "internalType": "string",
          "name": "_name",
          "type": "string"
        },
        {
          "internalType": "uint256",
          "name": "_age",
          "type": "uint256"
        },
        {
          "internalType": "string",
          "name": "_gender",
          "type": "string"
        }
      ],
      "name": "addCustomer",
      "outputs": [
        {
          "internalType": "uint256",
          "name": "",
          "type": "uint256"
        }
      ],
      "stateMutability": "nonpayable",
      "type": "function"
    },
    {
      "inputs": [
        {
          "internalType": "uint256",
          "name": "_customerId",
          "type": "uint256"
        },
        {
          "internalType": "string",
          "name": "_name",
          "type": "string"
        },
        {
          "internalType": "uint256",
          "name": "_age",
          "type": "uint256"
        },
        {
          "internalType": "string",
          "name": "_gender",
          "type": "string"
        }
      ],
      "name": "updateCustomer",
      "outputs": [],
      "stateMutability": "nonpayable",
      "type": "function"
    },
    {
      "inputs": [
        {
          "internalType": "uint256",
          "name": "_customerId",
          "type": "uint256"
        }
      ],
      "name": "deleteCustomer",
      "outputs": [],
      "stateMutability": "nonpayable",
      "type": "function"
    },
    {
      "inputs": [
        {
          "internalType": "uint256",
          "name": "_customerId",
          "type": "uint256"
        }
      ],
      "name": "getCustomer",
      "outputs": [
        {
          "internalType": "string",
          "name": "",
          "type": "string"
        },
        {
          "internalType": "uint256",
          "name": "",
          "type": "uint256"
        },
        {
          "internalType": "string",
          "name": "",
          "type": "string"
        }
      ],
      "stateMutability": "view",
      "type": "function"
    },
    {
      "inputs": [],
      "name": "getAllCustomers",
      "outputs": [
        {
          "internalType": "uint256[]",
          "name": "",
          "type": "uint256[]"
        },
        {
          "components": [
            {
              "internalType": "string",
              "name": "name",
              "type": "string"
            },
            {
              "internalType": "uint256",
              "name": "age",
              "type": "uint256"
            },
            {
              "internalType": "string",
              "name": "gender",
              "type": "string"
            }
          ],
          "internalType": "struct CustomerRegistry.Customer[]",
          "name": "",
          "type": "tuple[]"
        }
      ],
      "stateMutability": "view",
      "type": "function"
    }
  ],
  "bytecode": "0x608060405234801561001057600080fd5b506111c6806100206000396000f3fe608060405234801561001057600080fd5b50600436106100575760003560e01c806325c72eaa1461005c57806356d7548f146100785780637da67ba814610094578063dcba5f01146100b3578063eb876f27146100e3575b600080fd5b61007660048036038101906100719190610b46565b610115565b005b610092600480360381019061008d9190610b1d565b6101e8565b005b61009c610346565b6040516100aa929190610dff565b60405180910390f35b6100cd60048036038101906100c89190610a9e565b610640565b6040516100da9190610e9b565b60405180910390f35b6100fd60048036038101906100f89190610b1d565b6106fd565b60405161010c93929190610e36565b60405180910390f35b6001548410610159576040517f08c379a000000000000000000000000000000000000000000000000000000000815260040161015090610e7b565b60405180910390fd5b6000806000868152602001908152602001600020905083816000019080519060200190610187929190610890565b50828160010181905550818160020190805190602001906101a9929190610890565b507f518d4008f77ca5d227e4bb5e85135edd5c6a531be1c1be48c738d223f3bfa9a5856040516101d99190610e9b565b60405180910390a15050505050565b600154811061022c576040517f08c379a000000000000000000000000000000000000000000000000000000000815260040161022390610e7b565b60405180910390fd5b6000806001805461023d9190610fb6565b8152602001908152602001600020600080838152602001908152602001600020600082018160000190805461027190611060565b61027c929190610916565b5060018201548160010155600282018160020190805461029b90611060565b6102a6929190610916565b50905050600080600180546102bb9190610fb6565b8152602001908152602001600020600080820160006102da91906109a3565b60018201600090556002820160006102f291906109a3565b50506001600081548092919061030790611036565b91905055507f327dfee2f9edce80488b1d1c2717031edb90a8862cf2ca9a363d40ddb55d72bf8160405161033b9190610e9b565b60405180910390a150565b606080600060015467ffffffffffffffff81111561038d577f4e487b7100000000000000000000000000000000000000000000000000000000600052604160045260246000fd5b6040519080825280602002602001820160405280156103bb5781602001602082028036833780820191505090505b509050600060015467ffffffffffffffff811115610402577f4e487b7100000000000000000000000000000000000000000000000000000000600052604160045260246000fd5b60405190808252806020026020018201604052801561043b57816020015b6104286109e3565b8152602001906001900390816104205790505b50905060005b6001548110156106335780838281518110610485577f4e487b7100000000000000000000000000000000000000000000000000000000600052603260045260246000fd5b6020026020010181815250506000808281526020019081526020016000206040518060600160405290816000820180546104be90611060565b80601f01602080910402602001604051908101604052809291908181526020018280546104ea90611060565b80156105375780601f1061050c57610100808354040283529160200191610537565b820191906000526020600020905b81548152906001019060200180831161051a57829003601f168201915b505050505081526020016001820154815260200160028201805461055a90611060565b80601f016020809104026020016040519081016040528092919081815260200182805461058690611060565b80156105d35780601f106105a8576101008083540402835291602001916105d3565b820191906000526020600020905b8154815290600101906020018083116105b657829003601f168201915b505050505081525050828281518110610615577f4e487b7100000000000000000000000000000000000000000000000000000000600052603260045260246000fd5b6020026020010181905250808061062b90611092565b915050610441565b5081819350935050509091565b6000806000806001548152602001908152602001600020905084816000019080519060200190610671929190610890565b5083816001018190555082816002019080519060200190610693929190610890565b507f3b0d9b4506ac8953d5e56a453b9561048d0230804b8809cc058bb4a0c8ef8b626001546040516106c59190610e9b565b60405180910390a1600160008154809291906106e090611092565b9190505550600180546106f39190610fb6565b9150509392505050565b6060600060606001548410610747576040517f08c379a000000000000000000000000000000000000000000000000000000000815260040161073e90610e7b565b60405180910390fd5b600080600086815260200190815260200160002090508060000181600101548260020182805461077690611060565b80601f01602080910402602001604051908101604052809291908181526020018280546107a290611060565b80156107ef5780601f106107c4576101008083540402835291602001916107ef565b820191906000526020600020905b8154815290600101906020018083116107d257829003601f168201915b5050505050925080805461080290611060565b80601f016020809104026020016040519081016040528092919081815260200182805461082e90611060565b801561087b5780601f106108505761010080835404028352916020019161087b565b820191906000526020600020905b81548152906001019060200180831161085e57829003601f168201915b50505050509050935093509350509193909250565b82805461089c90611060565b90600052602060002090601f0160209004810192826108be5760008555610905565b82601f106108d757805160ff1916838001178555610905565b82800160010185558215610905579182015b828111156109045782518255916020019190600101906108e9565b5b5090506109129190610a04565b5090565b82805461092290611060565b90600052602060002090601f0160209004810192826109445760008555610992565b82601f106109555780548555610992565b8280016001018555821561099257600052602060002091601f016020900482015b82811115610991578254825591600101919060010190610976565b5b50905061099f9190610a04565b5090565b5080546109af90611060565b6000825580601f106109c157506109e0565b601f0160209004906000526020600020908101906109df9190610a04565b5b50565b60405180606001604052806060815260200160008152602001606081525090565b5b80821115610a1d576000816000905550600101610a05565b5090565b6000610a34610a2f84610ee7565b610eb6565b905082815260208101848484011115610a4c57600080fd5b610a57848285610ff4565b509392505050565b600082601f830112610a7057600080fd5b8135610a80848260208601610a21565b91505092915050565b600081359050610a9881611179565b92915050565b600080600060608486031215610ab357600080fd5b600084013567ffffffffffffffff811115610acd57600080fd5b610ad986828701610a5f565b9350506020610aea86828701610a89565b925050604084013567ffffffffffffffff811115610b0757600080fd5b610b1386828701610a5f565b9150509250925092565b600060208284031215610b2f57600080fd5b6000610b3d84828501610a89565b91505092915050565b60008060008060808587031215610b5c57600080fd5b6000610b6a87828801610a89565b945050602085013567ffffffffffffffff811115610b8757600080fd5b610b9387828801610a5f565b9350506040610ba487828801610a89565b925050606085013567ffffffffffffffff811115610bc157600080fd5b610bcd87828801610a5f565b91505092959194509250565b6000610be58383610d8a565b905092915050565b6000610bf98383610de1565b60208301905092915050565b6000610c1082610f37565b610c1a8185610f72565b935083602082028501610c2c85610f17565b8060005b85811015610c685784840389528151610c498582610bd9565b9450610c5483610f58565b925060208a01995050600181019050610c30565b50829750879550505050505092915050565b6000610c8582610f42565b610c8f8185610f83565b9350610c9a83610f27565b8060005b83811015610ccb578151610cb28882610bed565b9750610cbd83610f65565b925050600181019050610c9e565b5085935050505092915050565b6000610ce382610f4d565b610ced8185610f94565b9350610cfd818560208601611003565b610d0681611168565b840191505092915050565b6000610d1c82610f4d565b610d268185610fa5565b9350610d36818560208601611003565b610d3f81611168565b840191505092915050565b6000610d57601383610fa5565b91507f496e76616c696420637573746f6d6572204944000000000000000000000000006000830152602082019050919050565b60006060830160008301518482036000860152610da78282610cd8565b9150506020830151610dbc6020860182610de1565b5060408301518482036040860152610dd48282610cd8565b9150508091505092915050565b610dea81610fea565b82525050565b610df981610fea565b82525050565b60006040820190508181036000830152610e198185610c7a565b90508181036020830152610e2d8184610c05565b90509392505050565b60006060820190508181036000830152610e508186610d11565b9050610e5f6020830185610df0565b8181036040830152610e718184610d11565b9050949350505050565b60006020820190508181036000830152610e9481610d4a565b9050919050565b6000602082019050610eb06000830184610df0565b92915050565b6000604051905081810181811067ffffffffffffffff82111715610edd57610edc611139565b5b8060405250919050565b600067ffffffffffffffff821115610f0257610f01611139565b5b601f19601f8301169050602081019050919050565b6000819050602082019050919050565b6000819050602082019050919050565b600081519050919050565b600081519050919050565b600081519050919050565b6000602082019050919050565b6000602082019050919050565b600082825260208201905092915050565b600082825260208201905092915050565b600082825260208201905092915050565b600082825260208201905092915050565b6000610fc182610fea565b9150610fcc83610fea565b925082821015610fdf57610fde6110db565b5b828203905092915050565b6000819050919050565b82818337600083830152505050565b60005b83811015611021578082015181840152602081019050611006565b83811115611030576000848401525b50505050565b600061104182610fea565b91506000821415611055576110546110db565b5b600182039050919050565b6000600282049050600182168061107857607f821691505b6020821081141561108c5761108b61110a565b5b50919050565b600061109d82610fea565b91507fffffffffffffffffffffffffffffffffffffffffffffffffffffffffffffffff8214156110d0576110cf6110db565b5b600182019050919050565b7f4e487b7100000000000000000000000000000000000000000000000000000000600052601160045260246000fd5b7f4e487b7100000000000000000000000000000000000000000000000000000000600052602260045260246000fd5b7f4e487b7100000000000000000000000000000000000000000000000000000000600052604160045260246000fd5b6000601f19601f8301169050919050565b61118281610fea565b811461118d57600080fd5b5056fea2646970667358221220cd9540b39f47151e82867aa605355709d79bb6fec35563775157d90702f4e29264736f6c63430008000033",
  "immutableReferences": {},
  "source": "//SPDX-License-Identifier: MIT\r\npragma solidity ^0.8.0;\r\npragma experimental ABIEncoderV2;\r\n\r\ncontract CustomerRegistry {\r\n    struct Customer {\r\n        string name;\r\n        uint age;\r\n        string gender;\r\n    }\r\n\r\n    mapping(uint256 => Customer) private customers;\r\n    uint256 private nextCustomerId;\r\n\r\n    event CustomerAdded(uint256 customerId);\r\n    event CustomerUpdated(uint256 customerId);\r\n    event CustomerDeleted(uint256 customerId);\r\n\r\n    function addCustomer(string memory _name, uint _age, string memory _gender) public returns (uint256) {\r\n        Customer storage customer = customers[nextCustomerId];\r\n        customer.name = _name;\r\n        customer.age = _age;\r\n        customer.gender = _gender;\r\n\r\n        emit CustomerAdded(nextCustomerId);\r\n        nextCustomerId++;\r\n\r\n        return nextCustomerId - 1;\r\n    }\r\n\r\n    function updateCustomer(uint256 _customerId, string memory _name, uint _age, string memory _gender) public {\r\n        require(_customerId < nextCustomerId, \"Invalid customer ID\");\r\n\r\n        Customer storage customer = customers[_customerId];\r\n        customer.name = _name;\r\n        customer.age = _age;\r\n        customer.gender = _gender;\r\n\r\n        emit CustomerUpdated(_customerId);\r\n    }\r\n\r\n   function deleteCustomer(uint256 _customerId) public {\r\n        require(_customerId < nextCustomerId, \"Invalid customer ID\");\r\n\r\n        // Di chuyn khch hng cui cng trong danh sch vo v tr cn xa\r\n        customers[_customerId] = customers[nextCustomerId - 1];\r\n        delete customers[nextCustomerId - 1];\r\n\r\n        nextCustomerId--;\r\n\r\n        emit CustomerDeleted(_customerId);\r\n    }\r\n\r\n    function getCustomer(uint256 _customerId) public view returns (string memory, uint, string memory) {\r\n        require(_customerId < nextCustomerId, \"Invalid customer ID\");\r\n\r\n        Customer storage customer = customers[_customerId];\r\n        return (customer.name, customer.age, customer.gender);\r\n    }\r\n\r\n    function getAllCustomers() public view returns (uint256[] memory, Customer[] memory) {\r\n        uint256[] memory customerIds = new uint256[](nextCustomerId);\r\n        Customer[] memory allCustomers = new Customer[](nextCustomerId);\r\n\r\n        for (uint256 i = 0; i < nextCustomerId; i++) {\r\n            customerIds[i] = i;\r\n            allCustomers[i] = customers[i];\r\n        }\r\n\r\n        return (customerIds, allCustomers);\r\n    }\r\n}",
  "sourcePath": "D:\\VScode\\MyBC\\contracts\\CustomerRegistry.sol",
  "compiler": {
    "name": "solc",
    "version": "0.8.0+commit.c7dfd78e.Emscripten.clang"
  },
  "schemaVersion": "3.4.14",
  "updatedAt": "2023-06-26T09:11:57.394Z",
  "devdoc": {
    "kind": "dev",
    "methods": {},
    "version": 1
  },
  "userdoc": {
    "kind": "user",
    "methods": {},
    "version": 1
  }
}