{
  "contractName": "HashStorage",
  "abi": [
    {
      "anonymous": false,
      "inputs": [
        {
          "indexed": true,
          "internalType": "uint256",
          "name": "id",
          "type": "uint256"
        },
        {
          "indexed": false,
          "internalType": "string",
          "name": "hash",
          "type": "string"
        },
        {
          "indexed": false,
          "internalType": "uint256",
          "name": "timestamp",
          "type": "uint256"
        }
      ],
      "name": "HashAdded",
      "type": "event"
    },
    {
      "anonymous": false,
      "inputs": [
        {
          "indexed": true,
          "internalType": "uint256",
          "name": "id",
          "type": "uint256"
        }
      ],
      "name": "HashDeleted",
      "type": "event"
    },
    {
      "inputs": [
        {
          "internalType": "string",
          "name": "hash",
          "type": "string"
        }
      ],
      "name": "addHash",
      "outputs": [],
      "stateMutability": "nonpayable",
      "type": "function"
    },
    {
      "inputs": [
        {
          "internalType": "uint256",
          "name": "id",
          "type": "uint256"
        }
      ],
      "name": "getHash",
      "outputs": [
        {
          "internalType": "string",
          "name": "",
          "type": "string"
        },
        {
          "internalType": "uint256",
          "name": "",
          "type": "uint256"
        }
      ],
      "stateMutability": "view",
      "type": "function",
      "constant": true
    },
    {
      "inputs": [],
      "name": "getAllHashes",
      "outputs": [
        {
          "components": [
            {
              "internalType": "string",
              "name": "hash",
              "type": "string"
            },
            {
              "internalType": "uint256",
              "name": "timestamp",
              "type": "uint256"
            }
          ],
          "internalType": "struct HashStorage.HashInfo[]",
          "name": "",
          "type": "tuple[]"
        }
      ],
      "stateMutability": "view",
      "type": "function",
      "constant": true
    },
    {
      "inputs": [
        {
          "internalType": "uint256",
          "name": "id",
          "type": "uint256"
        }
      ],
      "name": "deleteHash",
      "outputs": [],
      "stateMutability": "nonpayable",
      "type": "function"
    }
  ],
  "bytecode": "0x608060405234801561001057600080fd5b50610b8d806100206000396000f3fe608060405234801561001057600080fd5b506004361061004c5760003560e01c80633631191e146100515780636b2fafa91461006d578063aeb276021461009e578063fe99f742146100ba575b600080fd5b61006b600480360381019061006691906106af565b6100d8565b005b610087600480360381019061008291906106af565b61017a565b604051610095929190610890565b60405180910390f35b6100b860048036038101906100b3919061066e565b610294565b005b6100c261033e565b6040516100cf919061086e565b60405180910390f35b60015481111561011d576040517f08c379a0000000000000000000000000000000000000000000000000000000008152600401610114906108c0565b60405180910390fd5b6000808281526020019081526020016000206000808201600061014091906104f4565b60018201600090555050807fc6c6354ce9908ca52f631b8b439f80591eb56d716bdd0d7a882c41c4edfe16fd60405160405180910390a250565b606060006001548311156101c3576040517f08c379a00000000000000000000000000000000000000000000000000000000081526004016101ba906108c0565b60405180910390fd5b60008060008581526020019081526020016000206040518060400160405290816000820180546101f290610a27565b80601f016020809104026020016040519081016040528092919081815260200182805461021e90610a27565b801561026b5780601f106102405761010080835404028352916020019161026b565b820191906000526020600020905b81548152906001019060200180831161024e57829003601f168201915b505050505081526020016001820154815250509050806000015181602001519250925050915091565b600160008154809291906102a790610a59565b9190505550604051806040016040528082815260200142815250600080600154815260200190815260200160002060008201518160000190805190602001906102f1929190610534565b50602082015181600101559050506001547f0742d6dd899a2d155d84447a17e84453c829b814dcc577ab5fdc0aa958fe8ebe8242604051610333929190610890565b60405180910390a250565b6060600060015467ffffffffffffffff811115610384577f4e487b7100000000000000000000000000000000000000000000000000000000600052604160045260246000fd5b6040519080825280602002602001820160405280156103bd57816020015b6103aa6105ba565b8152602001906001900390816103a25790505b5090506000600190505b60015481116104ec576000808281526020019081526020016000206040518060400160405290816000820180546103fd90610a27565b80601f016020809104026020016040519081016040528092919081815260200182805461042990610a27565b80156104765780601f1061044b57610100808354040283529160200191610476565b820191906000526020600020905b81548152906001019060200180831161045957829003601f168201915b505050505081526020016001820154815250508260018361049791906109a7565b815181106104ce577f4e487b7100000000000000000000000000000000000000000000000000000000600052603260045260246000fd5b602002602001018190525080806104e490610a59565b9150506103c7565b508091505090565b50805461050090610a27565b6000825580601f106105125750610531565b601f01602090049060005260206000209081019061053091906105d4565b5b50565b82805461054090610a27565b90600052602060002090601f01602090048101928261056257600085556105a9565b82601f1061057b57805160ff19168380011785556105a9565b828001600101855582156105a9579182015b828111156105a857825182559160200191906001019061058d565b5b5090506105b691906105d4565b5090565b604051806040016040528060608152602001600081525090565b5b808211156105ed5760008160009055506001016105d5565b5090565b60006106046105ff84610911565b6108e0565b90508281526020810184848401111561061c57600080fd5b6106278482856109e5565b509392505050565b600082601f83011261064057600080fd5b81356106508482602086016105f1565b91505092915050565b60008135905061066881610b40565b92915050565b60006020828403121561068057600080fd5b600082013567ffffffffffffffff81111561069a57600080fd5b6106a68482850161062f565b91505092915050565b6000602082840312156106c157600080fd5b60006106cf84828501610659565b91505092915050565b60006106e48383610813565b905092915050565b60006106f782610951565b6107018185610974565b93508360208202850161071385610941565b8060005b8581101561074f578484038952815161073085826106d8565b945061073b83610967565b925060208a01995050600181019050610717565b50829750879550505050505092915050565b600061076c8261095c565b6107768185610985565b93506107868185602086016109f4565b61078f81610b2f565b840191505092915050565b60006107a58261095c565b6107af8185610996565b93506107bf8185602086016109f4565b6107c881610b2f565b840191505092915050565b60006107e0600f83610996565b91507f496e76616c6964206861736820494400000000000000000000000000000000006000830152602082019050919050565b600060408301600083015184820360008601526108308282610761565b91505060208301516108456020860182610850565b508091505092915050565b610859816109db565b82525050565b610868816109db565b82525050565b6000602082019050818103600083015261088881846106ec565b905092915050565b600060408201905081810360008301526108aa818561079a565b90506108b9602083018461085f565b9392505050565b600060208201905081810360008301526108d9816107d3565b9050919050565b6000604051905081810181811067ffffffffffffffff8211171561090757610906610b00565b5b8060405250919050565b600067ffffffffffffffff82111561092c5761092b610b00565b5b601f19601f8301169050602081019050919050565b6000819050602082019050919050565b600081519050919050565b600081519050919050565b6000602082019050919050565b600082825260208201905092915050565b600082825260208201905092915050565b600082825260208201905092915050565b60006109b2826109db565b91506109bd836109db565b9250828210156109d0576109cf610aa2565b5b828203905092915050565b6000819050919050565b82818337600083830152505050565b60005b83811015610a125780820151818401526020810190506109f7565b83811115610a21576000848401525b50505050565b60006002820490506001821680610a3f57607f821691505b60208210811415610a5357610a52610ad1565b5b50919050565b6000610a64826109db565b91507fffffffffffffffffffffffffffffffffffffffffffffffffffffffffffffffff821415610a9757610a96610aa2565b5b600182019050919050565b7f4e487b7100000000000000000000000000000000000000000000000000000000600052601160045260246000fd5b7f4e487b7100000000000000000000000000000000000000000000000000000000600052602260045260246000fd5b7f4e487b7100000000000000000000000000000000000000000000000000000000600052604160045260246000fd5b6000601f19601f8301169050919050565b610b49816109db565b8114610b5457600080fd5b5056fea26469706673582212207b5e36285a6da81b0616aa37d5cea774df08a2ee5be66658e54c29abebf7b7cb64736f6c63430008000033",
  "immutableReferences": {},
  "source": "//SPDX-License-Identifier: MIT\r\npragma solidity ^0.8.0;\r\npragma experimental ABIEncoderV2;\r\n\r\ncontract HashStorage {\r\n    struct HashInfo {\r\n        string hash;\r\n        uint256 timestamp;\r\n    }\r\n\r\n    mapping(uint256 => HashInfo) private hashes;\r\n    uint256 private hashCount;\r\n\r\n    event HashAdded(uint256 indexed id, string hash, uint256 timestamp);\r\n    event HashDeleted(uint256 indexed id);\r\n\r\n    function addHash(string memory hash) public {\r\n        hashCount++;\r\n        hashes[hashCount] = HashInfo(hash, block.timestamp);\r\n        emit HashAdded(hashCount, hash, block.timestamp);\r\n    }\r\n\r\n    function getHash(uint256 id) public view returns (string memory, uint256) {\r\n        require(id <= hashCount, \"Invalid hash ID\");\r\n        HashInfo memory hashInfo = hashes[id];\r\n        return (hashInfo.hash, hashInfo.timestamp);\r\n    }\r\n\r\n    function getAllHashes() public view returns (HashInfo[] memory) {\r\n        HashInfo[] memory allHashes = new HashInfo[](hashCount);\r\n        for (uint256 i = 1; i <= hashCount; i++) {\r\n            allHashes[i - 1] = hashes[i];\r\n        }\r\n        return allHashes;\r\n    }\r\n\r\n    function deleteHash(uint256 id) public {\r\n        require(id <= hashCount, \"Invalid hash ID\");\r\n        delete hashes[id];\r\n        emit HashDeleted(id);\r\n    }\r\n}",
  "sourcePath": "D:\\GITHUB\\Specialized-Project\\private_bcn\\contracts\\Hash.sol",
  "compiler": {
    "name": "solc",
    "version": "0.8.0+commit.c7dfd78e.Emscripten.clang"
  },
  "schemaVersion": "3.4.14",
  "updatedAt": "2023-07-12T14:16:10.297Z",
  "networkType": "ethereum",
  "devdoc": {
    "kind": "dev",
    "methods": {},
    "version": 1
  },
  "userdoc": {
    "kind": "user",
    "methods": {},
    "version": 1
  }
}